{
  "contractName": "CreditSystem",
  "abi": [
    {
      "inputs": [],
      "stateMutability": "nonpayable",
      "type": "constructor"
    },
    {
      "inputs": [],
      "name": "person1",
      "outputs": [
        {
          "internalType": "address",
          "name": "",
          "type": "address"
        }
      ],
      "stateMutability": "view",
      "type": "function",
      "constant": true
    },
    {
      "inputs": [],
      "name": "person1Credits",
      "outputs": [
        {
          "internalType": "int256",
          "name": "",
          "type": "int256"
        }
      ],
      "stateMutability": "view",
      "type": "function",
      "constant": true
    },
    {
      "inputs": [],
      "name": "person2",
      "outputs": [
        {
          "internalType": "address",
          "name": "",
          "type": "address"
        }
      ],
      "stateMutability": "view",
      "type": "function",
      "constant": true
    },
    {
      "inputs": [],
      "name": "person2Credits",
      "outputs": [
        {
          "internalType": "int256",
          "name": "",
          "type": "int256"
        }
      ],
      "stateMutability": "view",
      "type": "function",
      "constant": true
    },
    {
      "inputs": [],
      "name": "work",
      "outputs": [],
      "stateMutability": "nonpayable",
      "type": "function"
    },
    {
      "inputs": [],
      "name": "notWork",
      "outputs": [],
      "stateMutability": "nonpayable",
      "type": "function"
    },
    {
      "inputs": [],
      "name": "getPerson1Credits",
      "outputs": [
        {
          "internalType": "int256",
          "name": "",
          "type": "int256"
        }
      ],
      "stateMutability": "view",
      "type": "function",
      "constant": true
    },
    {
      "inputs": [],
      "name": "getPerson2Credits",
      "outputs": [
        {
          "internalType": "int256",
          "name": "",
          "type": "int256"
        }
      ],
      "stateMutability": "view",
      "type": "function",
      "constant": true
    },
    {
      "inputs": [
        {
          "internalType": "address",
          "name": "user",
          "type": "address"
        },
        {
          "internalType": "string",
          "name": "documentHash",
          "type": "string"
        }
      ],
      "name": "uploadCertificate",
      "outputs": [],
      "stateMutability": "nonpayable",
      "type": "function"
    }
  ],
  "bytecode": "0x608060405234801561001057600080fd5b50336000806101000a81548173ffffffffffffffffffffffffffffffffffffffff021916908373ffffffffffffffffffffffffffffffffffffffff16021790555073467ff262fdfed564b998cc320b8c92c468887097600160006101000a81548173ffffffffffffffffffffffffffffffffffffffff021916908373ffffffffffffffffffffffffffffffffffffffff16021790555060646002819055506032600381905550610c63806100c56000396000f3fe608060405234801561001057600080fd5b50600436106100935760003560e01c806366993d661161006657806366993d66146100e857806370440b841461010657806373b3a027146101245780638eede07e14610140578063e642dc5a1461015e57610093565b8063322e9f041461009857806346cb59c2146100a257806347e7d335146100c05780634d432423146100ca575b600080fd5b6100a061017c565b005b6100aa61037b565b6040516100b791906107af565b60405180910390f35b6100c861039f565b005b6100d261059e565b6040516100df91906107e3565b60405180910390f35b6100f06105a8565b6040516100fd91906107af565b60405180910390f35b61010e6105ce565b60405161011b91906107e3565b60405180910390f35b61013e60048036038101906101399190610984565b6105d8565b005b610148610762565b60405161015591906107e3565b60405180910390f35b610166610768565b60405161017391906107e3565b60405180910390f35b60008054906101000a900473ffffffffffffffffffffffffffffffffffffffff1673ffffffffffffffffffffffffffffffffffffffff163373ffffffffffffffffffffffffffffffffffffffff1614806102235750600160009054906101000a900473ffffffffffffffffffffffffffffffffffffffff1673ffffffffffffffffffffffffffffffffffffffff163373ffffffffffffffffffffffffffffffffffffffff16145b610262576040517f08c379a000000000000000000000000000000000000000000000000000000000815260040161025990610a63565b60405180910390fd5b60008054906101000a900473ffffffffffffffffffffffffffffffffffffffff1673ffffffffffffffffffffffffffffffffffffffff163373ffffffffffffffffffffffffffffffffffffffff16036102ee57600a600260008282546102c89190610ab2565b92505081905550600a600360008282546102e29190610af6565b92505081905550610379565b600160009054906101000a900473ffffffffffffffffffffffffffffffffffffffff1673ffffffffffffffffffffffffffffffffffffffff163373ffffffffffffffffffffffffffffffffffffffff160361037857600a600260008282546103569190610af6565b92505081905550600a600360008282546103709190610ab2565b925050819055505b5b565b60008054906101000a900473ffffffffffffffffffffffffffffffffffffffff1681565b60008054906101000a900473ffffffffffffffffffffffffffffffffffffffff1673ffffffffffffffffffffffffffffffffffffffff163373ffffffffffffffffffffffffffffffffffffffff1614806104465750600160009054906101000a900473ffffffffffffffffffffffffffffffffffffffff1673ffffffffffffffffffffffffffffffffffffffff163373ffffffffffffffffffffffffffffffffffffffff16145b610485576040517f08c379a000000000000000000000000000000000000000000000000000000000815260040161047c90610a63565b60405180910390fd5b60008054906101000a900473ffffffffffffffffffffffffffffffffffffffff1673ffffffffffffffffffffffffffffffffffffffff163373ffffffffffffffffffffffffffffffffffffffff160361051157600a600260008282546104eb9190610af6565b92505081905550600a600360008282546105059190610ab2565b9250508190555061059c565b600160009054906101000a900473ffffffffffffffffffffffffffffffffffffffff1673ffffffffffffffffffffffffffffffffffffffff163373ffffffffffffffffffffffffffffffffffffffff160361059b57600a600260008282546105799190610ab2565b92505081905550600a600360008282546105939190610af6565b925050819055505b5b565b6000600254905090565b600160009054906101000a900473ffffffffffffffffffffffffffffffffffffffff1681565b6000600354905090565b6004816040516105e89190610baa565b908152602001604051809103902060009054906101000a900460ff1615610644576040517f08c379a000000000000000000000000000000000000000000000000000000000815260040161063b90610c0d565b60405180910390fd5b60008054906101000a900473ffffffffffffffffffffffffffffffffffffffff1673ffffffffffffffffffffffffffffffffffffffff168273ffffffffffffffffffffffffffffffffffffffff16036106b657600f600260008282546106aa9190610ab2565b92505081905550610727565b600160009054906101000a900473ffffffffffffffffffffffffffffffffffffffff1673ffffffffffffffffffffffffffffffffffffffff168273ffffffffffffffffffffffffffffffffffffffff160361072657600f6003600082825461071e9190610ab2565b925050819055505b5b60016004826040516107399190610baa565b908152602001604051809103902060006101000a81548160ff0219169083151502179055505050565b60025481565b60035481565b600073ffffffffffffffffffffffffffffffffffffffff82169050919050565b60006107998261076e565b9050919050565b6107a98161078e565b82525050565b60006020820190506107c460008301846107a0565b92915050565b6000819050919050565b6107dd816107ca565b82525050565b60006020820190506107f860008301846107d4565b92915050565b6000604051905090565b600080fd5b600080fd5b61081b8161078e565b811461082657600080fd5b50565b60008135905061083881610812565b92915050565b600080fd5b600080fd5b6000601f19601f8301169050919050565b7f4e487b7100000000000000000000000000000000000000000000000000000000600052604160045260246000fd5b61089182610848565b810181811067ffffffffffffffff821117156108b0576108af610859565b5b80604052505050565b60006108c36107fe565b90506108cf8282610888565b919050565b600067ffffffffffffffff8211156108ef576108ee610859565b5b6108f882610848565b9050602081019050919050565b82818337600083830152505050565b6000610927610922846108d4565b6108b9565b90508281526020810184848401111561094357610942610843565b5b61094e848285610905565b509392505050565b600082601f83011261096b5761096a61083e565b5b813561097b848260208601610914565b91505092915050565b6000806040838503121561099b5761099a610808565b5b60006109a985828601610829565b925050602083013567ffffffffffffffff8111156109ca576109c961080d565b5b6109d685828601610956565b9150509250929050565b600082825260208201905092915050565b7f596f7520617265206e6f7420617574686f72697a656420746f20706572666f7260008201527f6d207468697320616374696f6e2e000000000000000000000000000000000000602082015250565b6000610a4d602e836109e0565b9150610a58826109f1565b604082019050919050565b60006020820190508181036000830152610a7c81610a40565b9050919050565b7f4e487b7100000000000000000000000000000000000000000000000000000000600052601160045260246000fd5b6000610abd826107ca565b9150610ac8836107ca565b925082820190508281121560008312168382126000841215161715610af057610aef610a83565b5b92915050565b6000610b01826107ca565b9150610b0c836107ca565b9250828203905081811260008412168282136000851215161715610b3357610b32610a83565b5b92915050565b600081519050919050565b600081905092915050565b60005b83811015610b6d578082015181840152602081019050610b52565b60008484015250505050565b6000610b8482610b39565b610b8e8185610b44565b9350610b9e818560208601610b4f565b80840191505092915050565b6000610bb68284610b79565b915081905092915050565b7f416c72656164792075706c6f6164656420636572746966696361746500000000600082015250565b6000610bf7601c836109e0565b9150610c0282610bc1565b602082019050919050565b60006020820190508181036000830152610c2681610bea565b905091905056fea26469706673582212206c6506b2913fa58652e9558252a7c34c082a57fc4366b649d06f4f4696b326e764736f6c63430008130033",
  "immutableReferences": {},
  "source": "// SPDX-License-Identifier: MIT\r\npragma solidity ^0.8.0;\r\n\r\ncontract CreditSystem {\r\n    address public person1;\r\n    address public person2;\r\n    int public person1Credits;\r\n    int public person2Credits;\r\n\r\n    mapping(string => bool) _documents;\r\n    \r\n    constructor(){\r\n        person1 = msg.sender;\r\n        person2 = 0x467ff262fDFEd564B998Cc320b8C92c468887097; // Replace with the address of person 2\r\n        \r\n        person1Credits = 100;\r\n        person2Credits = 50;\r\n    }\r\n    \r\n    modifier onlyAuthorized() {\r\n        require(msg.sender == person1 || msg.sender == person2, \"You are not authorized to perform this action.\");\r\n        _;\r\n    }\r\n    \r\n    function work() public onlyAuthorized {\r\n        if (msg.sender == person1) {\r\n            person1Credits += 10;\r\n            person2Credits -= 10;\r\n        } else if (msg.sender == person2) {\r\n            person1Credits -= 10;\r\n            person2Credits += 10;\r\n        }\r\n    }\r\n    \r\n    function notWork() public onlyAuthorized {\r\n        if (msg.sender == person1) {\r\n            person1Credits -= 10;\r\n            person2Credits += 10;\r\n        } else if (msg.sender == person2) {\r\n            person1Credits += 10;\r\n            person2Credits -= 10;\r\n        }\r\n    }\r\n    \r\n    function getPerson1Credits() public view returns (int) {\r\n        return person1Credits;\r\n    }\r\n    \r\n    function getPerson2Credits() public view returns (int) {\r\n        return person2Credits;\r\n    }\r\n\r\n    function uploadCertificate(address user, string memory documentHash) public {\r\n        require(!_documents[documentHash], \"Already uploaded certificate\");\r\n\r\n        if (user == person1) {\r\n            person1Credits += 15;\r\n        } else if (user == person2) {\r\n            person2Credits += 15;\r\n        }\r\n        _documents[documentHash] = true;\r\n    }\r\n}\r\n",
  "sourcePath": "C:\\Users\\jagat\\project\\contracts\\di.sol",
  "compiler": {
    "name": "solc",
    "version": "0.8.19+commit.7dd6d404.Emscripten.clang"
  },
  "schemaVersion": "3.4.16",
  "updatedAt": "2023-10-13T05:10:17.034Z",
  "networkType": "ethereum",
  "devdoc": {
    "kind": "dev",
    "methods": {},
    "version": 1
  },
  "userdoc": {
    "kind": "user",
    "methods": {},
    "version": 1
  }
}